:1000000019C033C032C031C030C02FC02EC02DC087
:100010002CC02BC02AC029C028C027C099C725C022
:1000200024C023C022C021C020C01FC01EC01DC0CC
:100030001CC01BC011241FBECFEFD4E0DEBFCDBF5C
:1000400011E0A0E0B1E0E4ECFFE102C005900D9208
:10005000A231B107D9F711E0A2E1B1E001C01D92D0
:10006000A134B107E1F7A4D7ABCF97CA882321F019
:100070008091C100886003C08091C100877F809318
:10008000C1000895882321F08091C100806103C0E0
:100090008091C1008F7E8093C1000895882321F054
:1000A0008091C100806403C08091C1008F7B8093E8
:1000B000C1000895882321F08091C100806803C0A9
:1000C0008091C1008F778093C1000895882321F02B
:1000D0008091C100806203C08091C1008F7D8093B8
:1000E000C100089580E0DADF80E0E4DF80E0EEDF49
:1000F00080E0BCDF80E0C6DF0895CF92DF92EF9210
:10010000FF920F931F937B018C01D42EC22EEADF46
:10011000D2FE16C0A801970163E0220F331F441FCF
:10012000551F6A95D1F760E072E18AE790E026DF1B
:1001300021503040404050408091C000826015C046
:10014000A801970194E0220F331F441F551F9A9571
:10015000D1F760E072E18AE790E010DF2150304093
:10016000404050408091C0008D7F8093C00020931C
:10017000C400232F342F452F55272093C50080918D
:10018000C0008E7F8093C0008091C1008B7F8093E0
:10019000C10086E08093C200D0FE02C081E072DF21
:1001A000D1FE02C081E062DFC1FE02C081E076DFE5
:1001B000C0FE02C081E07EDFC2FE02C081E086DFB9
:1001C0001F910F91FF90EF90DF90CF900895809155
:1001D000C000881F8827881F08959091C00081E083
:1001E00095FF80E008958091C60008958093C60031
:1001F00008958091C0008C71089591E084FF90E093
:10020000892F089591E082FF90E0892F089591E071
:1002100083FF90E0892F0895882319F08CB58064BE
:1002200002C08CB58F7B8CBD0895882319F08CB5E6
:10023000806802C08CB58F778CBD089580E0F5DFB3
:1002400080E0EADF089581E00DB406FE80E00895C5
:100250008DB5881F8827881F08958EBD08958EB597
:1002600008952A9808952A9A08952CB5982F937086
:10027000922B9CBD9DB5807486958695892B8DBDEE
:100280000895EF920F931F93DF93CF9300D00F92B7
:10029000CDB7DEB7182F2B8369834A83CFDFE3DF27
:1002A0001093120193E090931C012B8169818A8144
:1002B000113029F494B19C6294B990E102C0249A5F
:1002C00090E0622B692B6CBDD0DF81E0A5DFEE20D2
:1002D00011F081E001C080E0A8DF113021F485B188
:1002E00000718F7E03C085B10C72837D082B05B928
:1002F0000F900F900F90CF91DF911F910F91EF9082
:100300000895882329F08091BC008B77846003C016
:100310008091BC008B778093BC000895882329F0DE
:100320008091BC008E77816003C08091BC008E7785
:100330008093BC00089580E0F1DF80E0E2DF089563
:10034000882311F0449A089544980895882311F061
:10035000459A0895459808951F93DF93CF930F9280
:10036000CDB7DEB7142F8093B800613051F0613003
:1003700028F0623059F0633049F405C01092B9009A
:1003800008C082E004C06093B90003C083E080939A
:10039000B90081E02983B5DF2981222311F081E0B2
:1003A000BDDF11FF02C081E001C080E0C9DF10FFA6
:1003B00002C081E001C080E0C9DF10921F011092ED
:1003C00021010F90CF91DF911F910895ECEBF0E0A8
:1003D00080818170846A808381E080931F01089509
:1003E000613029F4880F8093BB0083E005C0880F3B
:1003F00081608093BB0082E080931F018091BC00EC
:10040000817084688093BC000895833041F48091AA
:10041000BC008170846C8093BC0084E007C0809134
:10042000BC00817084688093BC0085E080931F01CC
:1004300008958093BB00ECEBF0E0808181708468CC
:10044000808386E080931F010895ECEBF0E08081CB
:1004500081708469808387E080931F010895809173
:10046000B900887F08958091B900887F883011F0A5
:10047000803111F482E0089580E008958091B90000
:10048000887F803271F0813218F4883141F405C0E0
:10049000803419F0883419F404C083E0089580E0B2
:1004A000089584E00895E091B900E87FE852E930CA
:1004B00028F4F0E0E050FF4F8081089580E0089537
:1004C000E091B900E87FE055E93028F4F0E0E75F1B
:1004D000FE4F8081089580E0089590932B018093D2
:1004E0002A010895DF93CF930F92CDB7DEB78091A5
:1004F0001F01882309F4D0C0873009F4CDC0909142
:10050000BC0092FFC9C09091BC0097FFBFC0833070
:1005100009F46AC0843030F4813069F0823009F027
:10052000A9C013C0853009F449C0853018F1863060
:1005300009F0A0C065C097DF823009F09BC08091B0
:100540002801609120014CDFA1C098DF833061F465
:10055000109227011092260180912401909125018B
:100560008230910540F525C0843009F083C06DDFED
:1005700084E074C0A5DF823009F07CC020912601A0
:10058000309127018091BB00E0912201F09123017D
:10059000E20FF31F80832F5F3F4F3093270120939B
:1005A0002601809124019091250101972817390790
:1005B00011F484E001C083E028DF68C081DF82306D
:1005C00009F058C09091BB00E0912201F091230105
:1005D0002091260130912701E20FF31F90831092A2
:1005E0001F018093290124C049DF833091F51092C7
:1005F000270110922601E0912201F091230126C0EB
:1006000052DF833031F580912601909127010196C8
:100610009093270180932601209124013091250198
:100620008217930769F482E08093290110921F01D9
:10063000E0912A01F0912B01309751F1099528C0E2
:10064000E0912201F0912301E80FF91F8081F1DE92
:100650001DC0843079F48983F8DE89818093290173
:1006600010921F01E0912A01F0912B01309791F037
:10067000099510C01092290110921F01E0912A01E2
:10068000F0912B01309741F0099506C081E005C03B
:1006900082E003C084E001C080E00F90CF91DF9141
:1006A00008952115310591F06093200150932301A5
:1006B00040932201309325012093240110922101BF
:1006C0008093280181E08093290180DE0895809144
:1006D000BB000895BADE08958091290108950F9313
:1006E000DF93CF93CDB7DEB761970FB6F894DEBF37
:1006F0000FBECDBF2131310518F56983DA01FE0146
:100700003296AF01420F531F02C09D919193E4179F
:10071000F507D9F72F5F3F4F61E0AE014F5F5F4FA5
:10072000C0DF002321F4DEDE8130E9F304C08091D4
:100730002901813081F0882319F087DE81E001C032
:1007400080E061960FB6F894DEBF0FBECDBFCF91AB
:10075000DF910F910895FFCFCF92DF92EF92FF923A
:100760000F931F93DF93CF930F92CDB7DEB7182F60
:1007700069837A01690161E0AE014F5F5F4F21E05B
:1007800030E08FDF002321F4ADDE8130E9F304C0D7
:1007900080912901813011F18823A1F0812F60E03F
:1007A000A70196017EDF002321F49CDE8130E9F36E
:1007B00004C080912901813081F0882319F045DE41
:1007C00081E001C080E00F90CF91DF911F910F91E8
:1007D000FF90EF90DF90CF900895FFCFFFCFEF9283
:1007E000FF920F931F93DF93CF93CDB7DEB72A9776
:1007F0000FB6F894DEBF0FBECDBF4F835887698711
:100800007A8780933001FE013796982F9064998300
:1008100093819A8392819B8391819C839F819D8305
:10082000883011F487E805C0882311F485E901C0F8
:1008300081E08E838FEF11DD0BDD8823E9F38FEFED
:100840000CDD06DD8823E9F38E010F5F1F4F87E083
:10085000E82EF12CEC0EFD1EF80181918F01FDDCDC
:10086000F7DC8823E9F30E151F05B1F72A960FB6BA
:10087000F894DEBF0FBECDBFCF91DF911F910F91D6
:10088000FF90EF9008951F93CF93DF93C0E0D0E0E7
:100890008FEFE3DCDDDC8823E9F3E1DC182F8F3F09
:1008A00029F0809130018A3341F409C02196C43681
:1008B000D10571F720E032E016C0883069F4C5E355
:1008C000D1E08FEFCADCC4DC8823E9F3C8DC8A936B
:1008D00081E0C133D807A9F7112319F0212F30E0A7
:1008E00002C020E031E0C901DF91CF911F9108954E
:1008F000CF92DF92EF92FF920F931F93DF93CF93EC
:10090000CDB7DEB760970FB6F894DEBF0FBECDBF90
:10091000182F6B01042F70932D0160932C018EDC36
:1009200081E060E043E020E0EE24ABDC9CDCEAE028
:10093000EE2EF12C8FEF91DC8BDC8823E9F3089409
:10094000E108F108E114F104A9F78BDC80E040E054
:1009500050E0BA0144DF97DF80389105E1F3813040
:10096000910509F0B2C188E04AEA51E060E070E028
:1009700036DF89DF80389105E1F382FF10C01092E5
:100980002E0110922F0181E040E050E0BA0127DFF4
:100990007ADF80389105E1F380FDF5CF30C08130FA
:1009A000910509F092C181E080932E01809131017F
:1009B00090913201A0913301B09134019F70A070E9
:1009C000B0708A3A21E0920720E0A20720E0B20747
:1009D00009F07BC187E340E050E0BA0100DF53DF5C
:1009E00080389105E1F389E240E050E060E070E496
:1009F000F6DE49DF80389105E1F380FDEBCF8AE335
:100A000040E050E0BA01EBDE3EDF80389105E1F3D3
:100A10008091310190913201A0913301B091340164
:100A2000B6FF04C081E080932F0102C010922F0115
:100A3000812F1BDCA60160E070E080E1D0DE23DFC7
:100A400080389105E1F3E1E080309E0709F03DC177
:100A500089E040E050E0BA01C2DE15DF8038910540
:100A6000E1F38FEFFADBF4DB8823E9F3F8DB8F3F68
:100A7000C1F387FD02C0F7DB28C16E010894C11CD9
:100A8000D11C8E010F5E1F4F8FEFE7DBE1DB882368
:100A9000E9F3E5DBF60181936F01E017F107A1F7B8
:100AA0008FEFDBDBD5DB8823E9F38FEFD6DBD0DB01
:100AB0008823E9F399818885198596FFA6C0282F98
:100AC0002F7330E040E050E060E070E080E090E0C4
:100AD00008E0C4D9F901DA01062FE72EC82E210F4C
:100AE00031E02E1708F030E03F0F41E03F1708F0EB
:100AF00040E04A0F51E04A1708F050E05B0F61E018
:100B00005B1708F060E0600F71E0601708F070E0BC
:100B10007E0D81E07E1508F080E08C0DE1E08C1503
:100B200008F0E0E09E0F08E099D9EA85F0E0319600
:100B3000BF2FAF2FAA0FAA0BE20FF1E0E21708F0C8
:100B4000F0E0232F2B0FB1E0231708F0B0E03F2F88
:100B5000320FF1E0321708F0F0E0BF2B142F1A0F1C
:100B6000F1E0141708F0F0E04B2F410F21E041179E
:100B700008F020E0F22B152F1A0FB1E0151708F03E
:100B8000B0E05F2F510F21E0511708F020E0B22BA9
:100B9000162F1A0FF1E0161708F0F0E06B2F610F17
:100BA00021E0611708F020E0F22B172F1A0FB1E0B7
:100BB000171708F0B0E07F2F710F21E0711708F0D0
:100BC00020E0B22B182F1A0FF1E0181708F0F0E010
:100BD0008B2F810F21E0811708F020E0F22B9A0F74
:100BE0002E2F9F0F03E13AD9209335013093360120
:100BF00040933701509338016093390170933A0163
:100C000080933B0190933C015DC09E819F7041E0C9
:100C100050E002C0440F551F9A95E2F76A85669529
:100C200066956695677070E06E5F7F4F02C0440FF7
:100C3000551F6A95E2F76A01EE24D7FCE094FE2C7A
:100C40001295169516951370212F30E040E050E074
:100C500090E0A0E0B0E072E0880F991FAA1FBB1FD0
:100C60007A95D1F7282B392B4A2B5B2B8F8190E07B
:100C7000A0E0B0E083709070A070B0706AE0880F60
:100C8000991FAA1FBB1F6A95D1F7282B392B4A2B16
:100C90005B2B2F5F3F4F4F4F5F4FC701B6014FD9BF
:100CA0009B01AC01609335013093360140933701CD
:100CB000509338011092390110923A0110923B0181
:100CC00010923C01D0DA81E001C080E060960FB65E
:100CD000F894DEBF0FBECDBFCF91DF911F910F9172
:100CE000FF90EF90DF90CF90089560913101709167
:100CF00032018091330190913401089580912F0148
:100D0000089580912E010895EF92FF920F931F9303
:100D10007B018C01A6DA88E1B801A70160DDB3DDB3
:100D200080389105E1F321E08030920719F09BDAD9
:100D300080E00BC08FEF91DA8BDA8823E9F38EEF36
:100D40008CDA86DA8823E9F381E01F910F91FF9016
:100D5000EF90089582DA7CDA8823E9F308951F93EF
:100D600080E07BDA75DA8823E9F380E076DA70DAFE
:100D70008823E9F38FEF71DA6BDA8823E9F36FDA0E
:100D8000182F8FEF6ADA64DA8823E9F368DA8823A8
:100D9000C1F31570153019F466DA81E002C063DA28
:100DA00080E01F910895AF92BF92CF92DF92EF92B1
:100DB000FF920F931F93CF93DF935A01E9016801CC
:100DC000A3DF882321F1EE24FF24EC1AFD0A00E0C2
:100DD00010E012C00C171D0740F0EC14FD0428F4BD
:100DE000F501EE0DFF1D808101C080E0B3DF0F5FD4
:100DF0001F4F0894E11CF11C80912C0190912D0152
:100E00000817190738F3ABDF91E0882309F490E065
:100E1000892FDF91CF911F910F91FF90EF90DF907D
:100E2000CF90BF90AF900895EF92FF920F931F93D2
:100E30007B018C0116DA81E1B801A701D0DC23DD4A
:100E400080389105E1F321E08030920751F48FEF73
:100E500004DAFED98823E9F302DA8F3FC1F387FD74
:100E600003C001DA80E001C081E01F910F91FF9083
:100E7000EF9008958FEFF1D9EBD98823E9F3EFD9FB
:100E800008958FEFEAD9E4D98823E9F38FEFE5D904
:100E9000DFD98823E9F38FEFE0D9DAD98823E9F3A2
:100EA000DED98F3FC1F7DFD981E00895AF92BF92BD
:100EB000CF92DF92EF92FF920F931F93CF93DF9326
:100EC0005A01E9016801B0DF882321F1EE24FF24F3
:100ED000EC1AFD0A00E010E012C00C171D0748F0E4
:100EE000EC14FD0430F4C6DFF501EE0DFF1D808328
:100EF00001C0C0DF0F5F1F4F0894E11CF11C8091FF
:100F00002C0190912D010817190738F3BADF91E0F1
:100F1000882309F490E0892FDF91CF911F910F91E1
:100F2000FF90EF90DF90CF90BF90AF900895209109
:100F3000350130913601409137015091380160916F
:100F4000390170913A0180913B0190913C010895E3
:100F50001F920F920FB60F9211248F939F93AF930E
:100F6000BF9380913D0190913E01A0913F01B091CE
:100F700040010196A11DB11D80933D0190933E015A
:100F8000A0933F01B0934001BF91AF919F918F918A
:100F90000F900FBE0F901F9018954A9A8FEF90E711
:100FA000A2E081509040A040E1F700C00000F5CFE2
:100FB0002F923F924F925F926F927F928F929F9269
:100FC000AF92BF92CF92DF92EF92FF920F931F9357
:100FD000DF93CF93CDB7DEB7EC970FB6F894DEBFB3
:100FE0000FBECDBFF894529A84B18C7F84B985B17D
:100FF000836085B982E085BD84BD80936E0084E600
:1010000087BD60E875E280E090E043E020E075D8BD
:1010100084E060E072E040E16BDC8CAF80E260E095
:1010200040E020E099D9CE01099663E543E020E055
:101030000CE0D6D289AFCE014F966AE640EC20E1B3
:10104000ABD38AAFCE0147966CE540E720E000E0E5
:10105000A9D488AFCE0140966EE148E120E000E6D9
:10106000B7D58BAFCE014096FAD5CE014796EED4D8
:10107000CE014F96E3D3CE010996FFD27894AA24ED
:10108000BB2465012AAD332727FD30953FAB2EAB3E
:1010900039AD832F992787FD90954EA95FA9480FF9
:1010A000591F5FAB4EAB5BAD852F992787FD9095A0
:1010B000AEA9BFA9A80FB91FBFABAEABB8AD8B2F00
:1010C000992787FD9095EEA9FFA9E80FF91FFFABBF
:1010D000EEAB48E2E42EF12CEC0EFD1E2FEF34E3D4
:1010E0004CE0215030404040E1F700C000005A9AE7
:1010F000189B09C06CD88823D9F375D8833429F09C
:101100008235B1F71DC0992402C0992493943CAD57
:10111000332389F480E090E04A9A2FEF34E34CE0E7
:10112000215030404040E1F700C000000196863079
:10113000910591F7D3CF392D3130C1F0992402C0F8
:1011400032E0932E4EA95FA94115510579F486E04E
:1011500090E04A9A2FEF34E34CE021503040404079
:10116000E1F700C000000197A1F7B8CF5A98392DD8
:10117000313009F04BC060E070E0CB01AE014F5F51
:101180005F4F20E030E004E010E090DE22243324C2
:1011900021016624772443012FC019D8882321F028
:1011A00022D8833509F49ACF6D827E828F82988609
:1011B000A5DD882321F42D823E824F8258866D81E1
:1011C0007E818F81988530DE00E012E006D888238A
:1011D000E9F350DE0BD801501040C1F752DE0894FD
:1011E000611C711C811C911C80E092E0A0E0B0E0C9
:1011F000280E391E4A1E5B1E89819A81AB81BC81F3
:10120000681679068A069B0640F268CF19821A8210
:101210001B821C82992069F58ADE09E0AED52D83F8
:101220003E834F83588760E070E0CB01AE014B5F97
:101230005F4F20E030E004E010E0B5DD5FDD8823A3
:1012400029F480E092E0A0E0B0E004C081E090E00A
:10125000A0E0B0E08D839E83AF83B8876D817E81EF
:101260008F81988551DD882309F497DEAA24BB2459
:101270006501F89410923D0110923E0110923F01D9
:101280001092400116BC83B5816083BD7894882498
:1012900026E0422E94E0292E992D923039F497D7EA
:1012A0008823B1F1A0D7833599F518CF992081F51E
:1012B000189B2EC00A2D1B2D04C080E04BDD0F5F54
:1012C0001F4FA2E000301A07C0F349DD17DD2D8162
:1012D0003E814F815885813039F089E05695479598
:1012E000379527958A95D1F72F5F3F4F4F4F5F4F27
:1012F0002D833E834F83588760E070E0CB01AE01C1
:101300004B5F5F4F20E030E004E010E04CDDE6CEC4
:10131000B82DB23009F491C0B33030F4882059F0C0
:10132000B13009F0DCC05FC0E82DE33081F1E4307A
:1013300009F0D5C0A9C0F9ADFF2309F4D0C0CE0192
:101340000996D2D1882309F4CAC0CE010996E7D103
:10135000882309F4C4C0F89480913D0190913E0126
:10136000A0913F01B09140017894F701828393836B
:10137000A483B58348A619A68A859B85978386830F
:101380008C859D85918780878E859F85A5C0FAADC8
:10139000FF2309F4A4C0CE014F96ACD2882309F4F0
:1013A0009EC0CE014F96C1D2882309F498C0F8940C
:1013B00080913D0190913E01A0913F01B09140018B
:1013C0007894F70182839383A483B58348A689A682
:1013D00088A199A1978386838AA19BA19187808701
:1013E0008CA19DA179C0F8ADFF2309F478C0CE018E
:1013F000479666D3882309F472C0CE01479696D3E8
:10140000882309F46CC0F89480913D0190913E01CD
:10141000A0913F01B09140017894F70182839383BA
:10142000A483B58328A689A6888D998DAA8DBB8DA6
:1014300086839783A087B18725C0F8ADFF2309F481
:101440004EC0CE01479657D3882309F448C0CE0139
:10145000479699D3882309F442C0F89480913D01BE
:1014600090913E01A0913F01B09140017894F70125
:1014700082839383A483B58388A689A68C8D9D8D52
:101480009783868381E02CC0FBADFF2341F1CE0121
:1014900040961CD4882319F1CE01409632D488237B
:1014A000F1F0F89480913D0190913E01A0913F01AF
:1014B000B09140017894F70182839383A483B5832C
:1014C00048A689A689899A89978386838B899C896E
:1014D000918780878D899E8993878287D3CF80E08B
:1014E0008394F82DF53009F48824882309F4D4CEA8
:1014F000992021F0370100E010E048C0370100E0FA
:1015000010E034C0D3018D913D0124DC0894A11C6E
:10151000B11CC11CD11CB0E0AB16B2E0BB06B0E000
:10152000CB06B0E0DB0600F11ADCE8DB2D813E8162
:101530004F815885813029F42F5F3F4F4F4F5F4FC8
:1015400004C020503E4F4F4F5F4F2D833E834F834B
:1015500058876D817E818F819885D6DB882309F439
:101560001CDDAA24BB2465010F5F1F4F88A590E0F6
:1015700006960817190730F29BCE2FD68823E9F379
:10158000F30181913F0132D60F5F1F4F89A590E093
:1015900006960817190788F37FCE1F920F920FB691
:1015A0000F9211242F933F934F935F936F937F93E9
:1015B0008F939F93AF93BF93EF93FF93EEDCFF91D5
:1015C000EF91BF91AF919F918F917F916F915F91BB
:1015D0004F913F912F910F900FBE0F901F90189534
:1015E000CF92DF92EF92FF920F931F93DF93CF93EF
:1015F0000F92CDB7DEB77C01862FC42ED22E102FCE
:10160000F701608360E0AE014F5F5F4F21E030E0A3
:1016100000E0A2D8882329F18981853E11F519823D
:10162000DD2011F488E0898389818C298983F70181
:10163000808161E36E010894C11CD11CA60121E0E8
:1016400030E000E04CD8882361F01F701983F70167
:1016500080816CE2A60121E030E041D891E088234E
:1016600009F490E0892F0F90CF91DF911F910F9196
:10167000FF90EF90DF90CF9008950F93DF93CF937B
:101680000F92CDB7DEB728E02983FC0180816DE29F
:10169000AE014F5F5F4F21E030E000E020D891E0E5
:1016A000882309F490E0892F0F90CF91DF910F915B
:1016B00008950F93DF93CF930F92CDB7DEB71982C2
:1016C000FC0180816DE2AE014F5F5F4F21E030E0B1
:1016D00000E005D891E0882309F490E0892F0F906D
:1016E000CF91DF910F9108950F93DF93CF930F92D6
:1016F000CDB7DEB7FC01808160E3AE014F5F5F4F85
:1017000021E030E000E028D8882319F08981807832
:1017100001C080E00F90CF91DF910F910895CF929B
:10172000DF92EF92FF920F93DF93CF9300D000D020
:1017300000D0CDB7DEB77C01FC01808162E36E0191
:101740000894C11CD11CA60126E030E000E004D8BA
:10175000882399F089819A81F70192838183F60128
:1017600082819381F70194838383F601848195813B
:10177000F7019683858381E001C080E026960FB64D
:10178000F894DEBF0FBECDBFCF91DF910F91FF90D8
:10179000EF90DF90CF900895BF92CF92DF92EF92BB
:1017A000FF920F931F93DF93CF930F92CDB7DEB7C6
:1017B0007C01862FB42E122FF70160836FE06E013B
:1017C0000894C11CD11CA60121E030E000E0C4D780
:1017D000882339F18981843D21F58B2D87638983A5
:1017E000F7018087808160E2A60121E030E077D7B1
:1017F0008823B9F010681983F701808163E2A6019C
:1018000021E030E06CD7882361F084E08983F70120
:10181000808164E2A60121E030E061D791E0882375
:1018200009F490E0892F0F90CF91DF911F910F91D4
:10183000FF90EF90DF90CF90BF9008950F93DF93CC
:10184000CF930F92CDB7DEB7FC0180858860898386
:10185000808160E2AE014F5F5F4F21E030E000E049
:101860003ED791E0882309F490E0892F0F90CF9123
:10187000DF910F9108950F93DF93CF930F92CDB720
:10188000DEB7FC018085877F8983808160E2AE01BD
:101890004F5F5F4F21E030E000E021D791E08823E7
:1018A00009F490E0892F0F90CF91DF910F91089567
:1018B000EF92FF920F93DF93CF930F92CDB7DEB7E6
:1018C0007C01FC01808166E2AE014F5F5F4F21E049
:1018D00030E000E041D7882329F08981F701878330
:1018E00081E001C080E00F90CF91DF910F91FF90D8
:1018F000EF9008950F93DF93CF930F92CDB7DEB79C
:10190000FC01808167E2AE014F5F5F4F21E030E074
:1019100000E022D7882319F0998181E093FF80E0CD
:101920000F90CF91DF910F910895CF92DF92EF92B8
:10193000FF920F93DF93CF9300D000D000D0CDB7AC
:10194000DEB77C01FC01808168EA6E010894C11C4D
:10195000D11CA60126E030E000E0FED6882399F0F5
:1019600089819A81F70192838183F6018281938133
:10197000F70194838383F60184819581F70196832F
:10198000858381E001C080E026960FB6F894DEBF23
:101990000FBECDBFCF91DF910F91FF90EF90DF9001
:1019A000CF900895AF92BF92CF92DF92EF92FF92C5
:1019B0000F931F93DF93CF930F92CDB7DEB77C01C8
:1019C000862FA42E122FB02EF70160836FE06E01D8
:1019D0000894C11CD11CA60121E030E000E0BCD677
:1019E000882331F189818B3B19F51982F7018081B8
:1019F00060E2A60121E030E072D68823C9F01B29FD
:101A00001983F701808160E1A60121E030E067D60B
:101A1000882371F08A2D84608983F7018783808110
:101A200060E2A60121E030E05AD691E0882309F473
:101A300090E0892F0F90CF91DF911F910F91FF9030
:101A4000EF90DF90CF90BF90AF9008950F93DF930A
:101A5000CF930F92CDB7DEB7FC0187818068898371
:101A6000808160E2AE014F5F5F4F21E030E000E037
:101A700036D691E0882309F490E0892F0F90CF911A
:101A8000DF910F9108950F93DF93CF930F92CDB70E
:101A9000DEB7FC0187818F778983808160E2AE01A8
:101AA0004F5F5F4F21E030E000E019D691E08823DE
:101AB00009F490E0892F0F90CF91DF910F91089555
:101AC0000F93DF93CF930F92CDB7DEB7FC018081E8
:101AD00067E2AE014F5F5F4F21E030E000E03CD6AF
:101AE000882319F0998181E091FF80E00F90CF91D8
:101AF000DF910F9108950F93DF93CF930F92CDB79E
:101B0000DEB7FC01808167E2AE014F5F5F4F21E0ED
:101B100030E000E021D6882319F08981817001C06E
:101B200080E00F90CF91DF910F910895EF92FF9297
:101B30000F93DF93CF9300D000D0CDB7DEB77C01F9
:101B40001C82FC01808168EAAE014F5F5F4F23E099
:101B500030E000E001D6882359F089819A81AB8179
:101B6000BC81F70181839283A383B48381E001C0A8
:101B700080E00F900F900F900F90CF91DF910F9119
:101B8000FF90EF900895EF92FF920F93DF93CF9322
:101B900000D0CDB7DEB77C01FC0180816BEAAE01DD
:101BA0004F5F5F4F22E030E000E0D6D5882339F068
:101BB00089819A81F7019683858381E001C080E065
:101BC0000F900F90CF91DF910F91FF90EF900895BC
:101BD000AF92BF92CF92DF92EF92FF920F931F933B
:101BE000DF93CF930F92CDB7DEB77C01862FA42E63
:101BF000B22E102FF70160836AE06E010894C11CB9
:101C0000D11CA60121E030E000E0A6D58823C9F070
:101C100089818834B1F4BA28B982F701808160E003
:101C2000A60121E030E05BD5882359F01983F70144
:101C3000808161E0A60121E030E051D591E0882368
:101C400009F490E0892F0F90CF91DF911F910F91B0
:101C5000FF90EF90DF90CF90BF90AF9008950F93DB
:101C6000DF93CF930F92CDB7DEB71982FC0180814D
:101C700062E0AE014F5F5F4F21E030E000E02FD522
:101C800091E0882309F490E0892F0F90CF91DF91A4
:101C90000F9108950F93DF93CF930F92CDB7DEB7D7
:101CA00023E02983FC01808162E0AE014F5F5F4F3A
:101CB00021E030E000E013D591E0882309F490E0C2
:101CC000892F0F90CF91DF910F9108950F93DF939C
:101CD000CF930F92CDB7DEB7FC01808169E0AE01F2
:101CE0004F5F5F4F21E030E000E036D5882319F0E8
:101CF0008981817001C080E00F90CF91DF910F91B9
:101D00000895EF92FF920F93DF93CF9300D000D00E
:101D100000D0CDB7DEB77C01FC01808163E0AE016D
:101D20004F5F5F4F26E030E000E016D58823C1F01A
:101D3000998180E02A81820F911DF701928381832E
:101D40009B8180E02C81820F911D968385839D81EC
:101D500080E02E81820F911D9483838381E001C0F6
:101D600080E026960FB6F894DEBF0FBECDBFCF91B0
:101D7000DF910F91FF90EF9008950F93DF93CF9332
:101D8000CDB7DEB760970FB6F894DEBF0FBECDBFFC
:101D9000002309F459C029833A834B835C836D8304
:101DA0007E838F839887E0E2E01B2D813E814F8107
:101DB00058851E16BCF01D861E861F86188A8E2F1B
:101DC000992787FD9095909581959F4F04C05695D2
:101DD0004795379527958A95D2F729873A874B8774
:101DE0005C872AC0CA01B901002E04C09695879568
:101DF000779567950A94D2F76D877E878F87988B42
:101E0000DA01C90104C0880F991FAA1FBB1FEA95F8
:101E1000D2F729813A814B815C8104C05695479560
:101E2000379527950A95D2F7822B932BA42BB52BA8
:101E300089879A87AB87BC8729853A854B855C85DE
:101E40006D857E858F85988960960FB6F894DEBF84
:101E50000FBECDBFCF91DF910F9108950F93DF9308
:101E6000CF93CDB7DEB760970FB6F894DEBF0FBE45
:101E7000CDBF002309F459C029833A834B835C8387
:101E80006D837E838F839887E0E2E01B29813A810E
:101E90004B815C811E16BCF019861A861B861C8637
:101EA0008E2F992787FD9095909581959F4F04C01F
:101EB000220F331F441F551F8A95D2F72D873E8767
:101EC0004F87588B2AC0CA01B901002E04C0660F83
:101ED000771F881F991F0A94D2F769877A878B87A3
:101EE0009C87DA01C90104C0B695A7959795879597
:101EF000EA95D2F72D813E814F81588504C0220F8B
:101F0000331F441F551F0A95D2F7822B932BA42B06
:101F1000B52B8D879E87AF87B88B29853A854B85F2
:101F20005C856D857E858F85988960960FB6F8945F
:101F3000DEBF0FBECDBFCF91DF910F910895629F9D
:101F4000D001739FF001829FE00DF11D649FE00DB1
:101F5000F11D929FF00D839FF00D749FF00D659F12
:101F6000F00D9927729FB00DE11DF91F639FB00D11
:101F7000E11DF91FBD01CF0111240895A1E21A2E20
:101F8000AA1BBB1BFD010DC0AA1FBB1FEE1FFF1F1D
:101F9000A217B307E407F50720F0A21BB30BE40B6D
:101FA000F50B661F771F881F991F1A9469F76095B4
:101FB0007095809590959B01AC01BD01CF0108956E
:041FC000F894FFCFC3
:101FC4000300000000000000040200000000000004
:021FD400000209
:00000001FF
